:020000040800F2
:100000000000012021520008D5130008E313000866
:10001000E9130008EF130008F513000800000000C2
:10002000000000000000000000000000FB130008BA
:100030000914000800000000171400082514000827
:100040007152000871520008715200087152000884
:100050007152000871520008715200087152000874
:100060007152000871520008715200087152000864
:100070007152000871520008715200087152000854
:10008000715200087152000871520008000000000F
:100090000000000000000000000000007152000895
:1000A0007152000871520008715200087152000824
:1000B0007152000871520008715200087152000814
:1000C0007152000871520008715200087152000804
:1000D00071520008715200087152000800000000BF
:1000E00071520008715200087152000800000000AF
:1000F0000000000000000000000000007152000835
:10010000000000007152000871520008715200088E
:1001100000000000000000000000000000000000DF
:1001200071520008715200087152000871520008A3
:1001300071520008000000000000000000000000F4
:1001400000000000000000000000000071520008E4
:100150007152000871520008715200087152000873
:1001600071520008715200080000000000000000F9
:10017000000000000000000000000000000000007F
:1001800000000000715200080000000000000000A4
:0401900071520008A0
:1001980010B5054C237833B9044B13B10448AFF3B9
:1001A80000800123237010BD0C0000200000000017
:1001B800CC52000808B5034B1BB103490348AFF301
:1001C800008008BD0000000010000020CC5200088C
:1001D80081F0004102E000BF83F0004330B54FEAF0
:1001E80041044FEA430594EA050F08BF90EA020F5D
:1001F8001FBF54EA000C55EA020C7FEA645C7FEAF0
:10020800655C00F0E2804FEA5454D4EB5555B8BF12
:100218006D420CDD2C4480EA020281EA030382EA83
:10022800000083EA010180EA020281EA0303362D15
:1002380088BF30BD11F0004F4FEA01314FF4801CE8
:100248004CEA113102D0404261EB410113F0004FFA
:100258004FEA03334CEA133302D0524263EB4303B1
:1002680094EA050F00F0A780A4F10104D5F1200E4F
:100278000DDB02FA0EFC22FA05F2801841F10001AA
:1002880003FA0EF2801843FA05F359410EE0A5F17E
:1002980020050EF1200E012A03FA0EFC28BF4CF0AF
:1002A800020C43FA05F3C01851EBE37101F0004565
:1002B80007D54FF0000EDCF1000C7EEB00006EEB72
:1002C8000101B1F5801F1BD3B1F5001F0CD34908FC
:1002D8005FEA30004FEA3C0C04F101044FEA445253
:1002E80012F5800F80F09A80BCF1004F08BF5FEADA
:1002F800500C50F1000041EB045141EA050130BDBA
:100308005FEA4C0C404141EB010111F4801FA4F15C
:100318000104E9D191F0000F04BF01460020B1FAB1
:1003280081F308BF2033A3F10B03B3F120020CDAE9
:100338000C3208DD02F1140CC2F10C0201FA0CF0C7
:1003480021FA02F10CE002F11402D8BFC2F1200C2C
:1003580001FA02F120FA0CFCDCBF41EA0C019040E2
:10036800E41AA2BF01EB0451294330BD6FEA04042B
:100378001F3C1CDA0C340EDC04F11404C4F1200216
:1003880020FA04F001FA02F340EA030021FA04F328
:1003980045EA030130BDC4F10C04C4F1200220FA7F
:1003A80002F001FA04F340EA0300294630BD21FABD
:1003B80004F0294630BD94F0000F83F4801306BF83
:1003C80081F480110134013D4EE77FEA645C18BF77
:1003D8007FEA655C29D094EA050F08BF90EA020F0E
:1003E80005D054EA000C04BF1946104630BD91EA06
:1003F800030F1EBF0021002030BD5FEA545C05D109
:100408004000494128BF41F0004130BD14F5800447
:100418003CBF01F5801130BD01F0004545F0FE41BB
:1004280041F470014FF0000030BD7FEA645C1ABFF0
:10043800194610467FEA655C1CBF0B46024650EA27
:10044800013406BF52EA033591EA030F41F4002153
:1004580030BD00BF90F0000F04BF0021704730B5D9
:100468004FF4806404F132044FF000054FF00001AE
:1004780050E700BF90F0000F04BF0021704730B56F
:100488004FF4806404F1320410F0004548BF404244
:100498004FF000013EE700BF42004FEAE2014FEA99
:1004A80031014FEA02701FBF12F07F4393F07F4F74
:1004B80081F06051704792F0000F14BF93F07F4FA6
:1004C800704730B54FF4607401F0004521F00041E9
:1004D80020E700BF50EA010208BF704730B54FF06F
:1004E80000050AE050EA010208BF704730B511F074
:1004F800004502D5404261EB41014FF4806404F1AC
:1005080032045FEA915C3FF4DCAE4FF003025FEA2D
:10051800DC0C18BF03325FEADC0C18BF033202EBB5
:10052800DC02C2F1200300FA03FC20FA02F001FA0F
:1005380003FE40EA0E0021FA02F11444C1E600BFAE
:1005480070B54FF0FF0C4CF4E06C1CEA11541DBF61
:100558001CEA135594EA0C0F95EA0C0F00F0DEF82C
:100568002C4481EA030621EA4C5123EA4C5350EA11
:10057800013518BF52EA033541F4801143F4801362
:1005880038D0A0FB02CE4FF00005E1FB02E506F0F3
:100598000042E0FB03E54FF00006E1FB03569CF048
:1005A800000F18BF4EF0010EA4F1FF04B6F5007F4E
:1005B80064F5407404D25FEA4E0E6D4146EB0606C0
:1005C80042EAC62141EA55514FEAC52040EA5E5049
:1005D8004FEACE2EB4F1FD0C88BFBCF5E06F1ED8F3
:1005E800BEF1004F08BF5FEA500E50F1000041EB2A
:1005F800045170BD06F0004646EA010140EA0200D7
:1006080081EA0301B4EB5C04C2BFD4EB0C0541EAF8
:10061800045170BD41F480114FF0000E013C00F30D
:10062800AB8014F1360FDEBF002001F0004170BD31
:10063800C4F10004203C35DA0C341BDC04F114044A
:10064800C4F1200500FA05F320FA04F001FA05F2D6
:1006580040EA020001F0004221F0004110EBD370A3
:1006680021FA04F642EB06015EEA430E08BF20EACF
:10067800D37070BDC4F10C04C4F1200500FA04F372
:1006880020FA05F001FA04F240EA020001F0004104
:1006980010EBD37041F100015EEA430E08BF20EA77
:1006A800D37070BDC4F1200500FA05F24EEA020EBF
:1006B80020FA04F301FA05F243EA020321FA04F0EE
:1006C80001F0004121FA04F220EA020000EBD370A5
:1006D8005EEA430E08BF20EAD37070BD94F0000FA5
:1006E8000FD101F00046400041EB010111F4801FD9
:1006F80008BF013CF7D041EA060195F0000F18BF8A
:10070800704703F00046520043EB030313F4801FC5
:1007180008BF013DF7D043EA0603704794EA0C0F7F
:100728000CEA135518BF95EA0C0F0CD050EA410695
:1007380018BF52EA4306D1D181EA030101F0004112
:100748004FF0000070BD50EA410606BF104619463A
:1007580052EA430619D094EA0C0F02D150EA013646
:1007680013D195EA0C0F05D152EA03361CBF104687
:1007780019460AD181EA030101F0004141F0FE4126
:1007880041F470014FF0000070BD41F0FE4141F4AA
:10079800780170BD70B54FF0FF0C4CF4E06C1CEAAA
:1007A80011541DBF1CEA135594EA0C0F95EA0C0F5F
:1007B80000F0A7F8A4EB050481EA030E52EA03351A
:1007C8004FEA013100F088804FEA03334FF080553B
:1007D80045EA131343EA12634FEA022245EA111568
:1007E80045EA10654FEA00260EF000419D4208BF19
:1007F800964244F1FD0404F5407402D25B084FEAC6
:100808003202B61A65EB03055B084FEA32024FF471
:1008180080104FF4002CB6EB020E75EB030E22BFCE
:10082800B61A754640EA0C005B084FEA3202B6EB8E
:10083800020E75EB030E22BFB61A754640EA5C003D
:100848005B084FEA3202B6EB020E75EB030E22BFCD
:10085800B61A754640EA9C005B084FEA3202B6EBCE
:10086800020E75EB030E22BFB61A754640EADC008D
:1008780055EA060E18D04FEA051545EA16754FEAEF
:1008880006164FEAC30343EA52734FEAC2025FEA0D
:100898001C1CC0D111F4801F0BD141EA00014FF09C
:1008A80000004FF0004CB6E711F4801F04BF01436D
:1008B8000020B4F1FD0C88BFBCF5E06F3FF6AFAE89
:1008C800B5EB030C04BFB6EB020C5FEA500C50F119
:1008D800000041EB045170BD0EF0004E4EEA11319C
:1008E80014EB5C04C2BFD4EB0C0541EA045170BDA3
:1008F80041F480114FF0000E013C90E645EA060EE7
:100908008DE60CEA135594EA0C0F08BF95EA0C0F14
:100918003FF43BAF94EA0C0F0AD150EA01347FF45C
:1009280034AF95EA0C0F7FF425AF104619462CE733
:1009380095EA0C0F06D152EA03353FF4FDAE104696
:10094800194622E750EA410618BF52EA43067FF4E7
:10095800C5AE50EA41047FF40DAF52EA43057FF477
:10096800EBAE12E74FF0FF3C06E000BF4FF0010C82
:1009780002E000BF4FF0010C4DF804CD4FEA410CE6
:100988007FEA6C5C4FEA430C18BF7FEA6C5C1BD0B3
:1009980001B050EA410C0CBF52EA430C91EA030F34
:1009A80002BF90EA020F0020704710F1000F91EA91
:1009B800030F58BF994208BF90422CBFD8176FEA5F
:1009C800E37040F0010070474FEA410C7FEA6C5C2D
:1009D80002D150EA013C07D14FEA430C7FEA6C5C34
:1009E800D6D152EA033CD3D05DF8040B704700BF60
:1009F8008446104662468C461946634600E000BFAE
:100A080001B5FFF7B7FF002848BF10F1000F01BD7F
:100A18004DF808EDFFF7F4FF0CBF012000205DF84A
:100A280008FB00BF4DF808EDFFF7EAFF34BF0120CF
:100A380000205DF808FB00BF4DF808EDFFF7E0FF68
:100A480094BF012000205DF808FB00BF4DF808EDB9
:100A5800FFF7CEFF94BF012000205DF808FB00BF20
:100A68004DF808EDFFF7C4FF34BF012000205DF802
:100A780008FB00BF4FEA410212F5001215D211D54A
:100A88006FF47873B3EB625212D94FEAC12343F083
:100A9800004343EA505311F0004F23FA02F018BF05
:100AA800404270474FF00000704750EA013005D1CE
:100AB80011F0004008BF6FF0004070474FF0000091
:100AC800704700BF4A0011D212F5001211D20DD59D
:100AD8006FF47873B3EB62520ED44FEAC12343F03C
:100AE800004343EA505323FA02F070474FF00000E6
:100AF800704750EA013002D14FF0FF3070474FF095
:100B08000000704753B94AB9002908BF00281CBF24
:100B18004FF0FF314FF0FF3000F07AB9ADF1080C1B
:100B28006DE904CE00F006F8DDF804E0DDE9022303
:100B380004B070472DE9F0478C460D460446089EE0
:100B4800002B51D18A4217466DD9B2FA82FEBEF106
:100B5800000F0BD0CEF1200C01FA0EF520FA0CFC98
:100B680002FA0EF74CEA050C00FA0EF44FEA174A9F
:100B7800250CBCFBFAF81FFA87F90AFB18CC45EAE2
:100B88000C4508FB09F3AB420AD9ED1908F1FF320D
:100B980080F02381AB4240F22081A8F102083D4455
:100BA800ED1AA4B2B5FBFAF00AFB105544EA054465
:100BB80000FB09F9A14509D9E41900F1FF3380F0D8
:100BC8000A81A14540F2078102383C44A4EB09049C
:100BD80040EA08400021002E61D024FA0EF40023D8
:100BE80034607360BDE8F0878B4207D9002E54D07B
:100BF800002186E821000846BDE8F087B3FA83F1B2
:100C0800002940F08E80AB4202D3824200F2FA8083
:100C1800841A65EB03050120AC46002E3FD086E818
:100C28001010BDE8F08712B90127B7FBF2F7B7FA41
:100C380087FEBEF1000F34D1EB1B3A0C1FFA87FC7C
:100C48000121B3FBF2F8250C02FB183345EA0345F2
:100C58000CFB08F3AB4207D9ED1908F1FF3002D2BB
:100C6800AB4200F2D1808046ED1AA3B2B5FBF2F098
:100C780002FB105543EA05440CFB00FCA44507D9C8
:100C8800E41900F1FF3302D2A44500F2B8801846F7
:100C9800A4EB0C0440EA08409DE731463046BDE825
:100CA800F087CEF1200405FA0EF307FA0EF720FAC2
:100CB80004F83A0C25FA04F448EA0308B4FBF2F104
:100CC8004FEA184502FB11441FFA87FC45EA044520
:100CD80001FB0CF3AB4200FA0EF409D9ED1901F14E
:100CE800FF3080F08A80AB4240F2878002393D4471
:100CF800EB1A1FFA88F5B3FBF2F002FB103345EA52
:100D0800034500FB0CF3AB4207D9ED1900F1FF389E
:100D18006FD2AB426DD902383D44EB1A40EA01412B
:100D28008FE7C1F1200722FA07F88B4005FA01F492
:100D380048EA030320FA07FE4FEA134CFD404EEA47
:100D4800040EB5FBFCF94FEA1E440CFB19551FFABB
:100D580083F844EA054509FB08F4AC4202FA01F2BB
:100D680000FA01FA08D9ED1809F1FF3043D2AC4274
:100D780041D9A9F102091D442D1B1FFA8EFEB5FBAE
:100D8800FCF00CFB10554EEA054400FB08F8A045A2
:100D980007D9E41800F1FF3529D2A04527D9023830
:100DA8001C4440EA0940A4EB0804A0FB02894C4516
:100DB800C6464D4615D312D056B1BAEB0E0364EBB6
:100DC800050404FA07F7CB401F43CC403760746032
:100DD8000021BDE8F0871846F8E69046E0E6C245EF
:100DE800EAD2B8EB020E69EB03050138E4E72846BE
:100DF800D7E7404691E78146BEE7014678E70238E3
:100E08003C4445E7084608E7A8F102083D442BE7BB
:100E1800704700BF80B588B000AF07F10C0300220F
:100E28001A605A609A60DA601A610023BB60234A2C
:100E3800224B1B6B43F001031363204B1B6B03F026
:100E48000103BB60BB6800237B601C4A1B4B1B6B08
:100E580043F004031363194B1B6B03F004037B601B
:100E68007B6800221021164800F060FE00224FF433
:100E78008061144800F05AFE1023FB6001233B6197
:100E880000237B610023BB6107F10C0319460C4862
:100E980000F0CAFC4FF48063FB6001233B61002330
:100EA8007B610023BB6107F10C031946054800F07C
:100EB800BBFC00BF2037BD4680BD00BF00380240E4
:100EC800000802400000024080B58AB002AF00F07E
:100ED80033FB00F005F9FFF79DFF00F0D1F900F0B2
:100EE800B9FA724802F036FD714802F043FD4FF43A
:100EF800FA6000F093FB6F4A6F49704802F0A8F956
:100F08006E4802F02AFB4FF4FA6000F087FBFF23DB
:100F1800BB77FF237B77FF233B7707F11E02012373
:100F28000021664802F055FB07F11D02012301214B
:100F3800624802F04EFB07F11C02012302215F48C0
:100F480002F047FBBB7F19467B7F1A465C4802F0DC
:100F580011FD3B7F19465B4802F00CFD7B7F03F0D7
:100F68000803DBB2002B1CD07B7F23F00803DBB225
:100F78007B777B7F1946544802F0FCFC07F11D0281
:100F8800012301214D4802F0AFFB07F11D020123A7
:100F980001214A4802F01DFB7B7F19464A4802F0AE
:100FA800E9FC3B7F5BB2002B10DA3B7F03F07F0349
:100FB800DBB23B773B7F1946424802F0DBFC07F186
:100FC8001C02012302213D4802F08EFBFF233B77E0
:100FD80007F11C0201230221384802F0FAFA3B7F8C
:100FE8001946384802F0C6FC384A07F11803126857
:100FF800114619800233120C1A70354B1B687B613D
:1010080007F1140207F1180319462C4802F034F9C5
:1010180007F10C0300221A601A7101233B730B239A
:101028007B7307F10C031946244802F0F9F94FF4D1
:101038008061284800F093FD204802F025FC034613
:10104800FB77FB7F03F00803DBB2002B02D01B48C1
:1010580002F0D8FBFB7F03F00403DBB2002B02D0C5
:10106800164802F0F0FB3A1D07F108031946134829
:1010780002F05BF9BB7A19467B7A1A463B7A164826
:1010880002F078FC3B79194697F905301A4697F92A
:1010980006301846FB7900930346104802F06AFCB4
:1010A8004FF47A7000F0BAFAC1E700BF8C00002054
:1010B800E852000839120008B91100082C00002075
:1010C80000530008105300081C5300086C53000814
:1010D80070530008000002402453000840530008E1
:1010E80080B594B000AF07F12003302200211846E4
:1010F80004F0E0F807F10C0300221A605A609A60C5
:10110800DA601A610023BB60234A234B1B6C43F04F
:1011180080531364204B1B6C03F08053BB60BB6887
:1011280000237B601D4A1D4B1B6823F4404343F496
:1011380000431360194B1B6803F440437B607B68D2
:1011480002233B620123FB6210233B630023BB6342
:1011580007F12003184600F01DFD0346002B01D0BF
:1011680000F086F80F23FB6000233B6100237B61BE
:101178000023BB610023FB6107F10C030021184623
:1011880000F078FF0346002B01D000F071F800BF93
:101198005037BD4680BD00BF003802400070004097
:1011A80080B400AF00BFBD465DF8047B7047000007
:1011B80080B588B002AFF860B9607A603B60FB68C0
:1011C800002B02D1FFF7ECFFFEE7BB68002B02D132
:1011D800FFF7E6FFFEE700224FF48061124800F0B7
:1011E800A5FC7B689AB23B6800931346BA68F96815
:1011F8000E4801F072F90346BB7501224FF4806175
:10120800094800F093FCBB7D032B02D1FF23FB753B
:1012180004E0BB7D002B01D10023FB7597F9173043
:1012280018461837BD4680BD000002403400002033
:1012380080B582B000AF0346FB71FB79012B05D165
:1012480001221021094800F071FC0BE0FB79002B0A
:1012580005D100221021054800F068FC02E0FFF7E4
:101268009FFFFEE70837BD4680BD00BF000802406B
:1012780080B400AF00BFBD465DF8047B7047000036
:1012880080B500AF174B184A1A60164B4FF482729C
:101298005A60144B00229A60124B0022DA60114BFC
:1012A80000221A610F4B00225A610E4B4FF4007254
:1012B8009A610C4B1822DA610A4B00221A62094B18
:1012C80000225A62074B00229A62064B0A22DA620F
:1012D800044801F09FF80346002B01D0FFF7C8FF30
:1012E80000BF80BD340000200030014080B58AB0C6
:1012F80000AF786007F1140300221A605A609A6000
:10130800DA601A617B681B68194A93422BD1002363
:101318003B61184A174B5B6C43F480535364154B7D
:101328005B6C03F480533B613B690023FB60114A0B
:10133800104B1B6B43F0010313630E4B1B6B03F045
:101348000103FB60FB68E0237B610223BB61002390
:10135800FB6103233B6205237B6207F114031946F3
:10136800054800F061FA00BF2837BD4680BD00BFC0
:1013780000300140003802400000024080B483B0D1
:1013880000AF00237B60104A0F4B5B6C43F4804333
:1013980053640D4B5B6C03F480437B607B680023D4
:1013A8003B60094A084B1B6C43F080531364064B9F
:1013B8001B6C03F080533B603B6800BF0C37BD4695
:1013C8005DF8047B704700BF0038024080B400AF6E
:1013D80000BFBD465DF8047B704780B400AFFEE7F0
:1013E80080B400AFFEE780B400AFFEE780B400AF82
:1013F800FEE780B400AF00BFBD465DF8047B7047D0
:1014080080B400AF00BFBD465DF8047B704780B470
:1014180000AF00BFBD465DF8047B704780B500AFE4
:1014280000F0DCF800BF80BD80B400AF084A084B6C
:10143800D3F8883043F47003C2F88830044B4FF077
:1014480000629A6000BFBD465DF8047B704700BF2C
:1014580000ED00E080B500AF114B124A1A60104B46
:101468004FF461425A600E4B00229A600C4B0022E6
:10147800DA600B4B00221A61094B0C225A61084BA7
:1014880000229A61064B0022DA61054801F072FADF
:101498000346002B01D0FFF7EBFE00BF80BD00BF65
:1014A8008C0000200044004080B58AB000AF78600E
:1014B80007F1140300221A605A609A60DA601A6110
:1014C8007B681B68194A93422BD100233B61184A59
:1014D800174B1B6C43F400331364154B1B6C03F45C
:1014E80000333B613B690023FB60114A104B1B6BC7
:1014F80043F0010313630E4B1B6B03F00103FB6006
:10150800FB680C237B610223BB610023FB6103237F
:101518003B6207237B6207F114031946054800F074
:1015280083F900BF2837BD4680BD00BF0044004096
:10153800003802400000024080B500AF0E4A0E4B52
:101548001B6843F4007313600B4A0B4B1B6843F48E
:1015580080631360084A084B1B6843F48073136068
:10156800032000F02DF9002000F008F8FFF706FF2F
:101578000023184680BD00BF003C024080B582B001
:1015880000AF7860124B1A68124B1B7819464FF45B
:101598007A73B3FBF1F3B2FBF3F3184600F037F9B3
:1015A8000346002B01D001230EE07B680F2B0AD8DD
:1015B800002279684FF0FF3000F00DF9064A7B6889
:1015C8001360002300E0012318460837BD4680BD9C
:1015D80000000020080000200400002080B400AFB4
:1015E800064B1B781A46064B1B681344044A1360C3
:1015F80000BFBD465DF8047B704700BF08000020AF
:10160800CC00002080B400AF034B1B681846BD46D1
:101618005DF8047B704700BFCC00002080B584B023
:1016280000AF7860FFF7EEFFB8607B68FB60FB688F
:10163800B3F1FF3F05D0094B1B781A46FB681344EA
:10164800FB6000BFFFF7DEFF0246BB68D21AFB68EB
:101658009A42F7D300BF1037BD4680BD080000206E
:1016680080B485B000AF78607B6803F00703FB6047
:101678000C4BDB68BB60BA684FF6FF031340BB60D6
:10168800FB681A02BB68134343F0BF6343F400339B
:10169800BB60044ABB68D36000BF1437BD465DF821
:1016A800047B704700ED00E080B400AF044BDB68BA
:1016B8001B0A03F007031846BD465DF8047B704714
:1016C80000ED00E080B483B000AF03463960FB71E1
:1016D80097F90730002B0ADB0D4997F907303A686C
:1016E800D2B21201D2B20B4483F800230AE00949AE
:1016F800FB7903F00F03043B3A68D2B21201D2B26D
:101708000B441A7600BF0C37BD465DF8047B704762
:1017180000E100E000ED00E080B489B000AFF860BF
:10172800B9607A60FB6803F00703FB61FB69C3F1EA
:101738000703042B28BF0423BB61FB690433062B72
:1017480002D9FB69033B00E000237B610122BB69EE
:1017580002FA03F35A1EBB681A407B699A400121BA
:101768007B6901FA03F3591E7B680B401343184643
:101778002437BD465DF8047B7047000080B582B011
:1017880000AF78607B68013BB3F1807F01D3012310
:101798000FE00A4A7B68013B53600F214FF0FF308E
:1017A800FFF790FF054B00229A60044B07221A604E
:1017B800002318460837BD4680BD00BF10E000E092
:1017C80080B582B000AF78607868FFF749FF00BF46
:1017D8000837BD4680BD80B586B000AF0346B96006
:1017E8007A60FB7300237B61FFF75EFF78617A689C
:1017F800B9687869FFF790FF024697F90F301146EC
:101808001846FFF75FFF00BF1837BD4680BD80B59B
:1018180082B000AF78607868FFF7B0FF03461846DB
:101828000837BD4680BD000080B489B000AF78603D
:10183800396000237B6100233B610023BB610023E7
:10184800FB6159E10122FB6902FA03F37B613B6802
:101858001A687B6913403B613A697B699A4240F098
:1018680048813B685B68012B0BD03B685B68022BA7
:1018780007D03B685B68112B03D03B685B68122B71
:1018880030D17B689B68BB61FB695B00032202FA6D
:1018980003F3DB43BA691340BB613B68DA68FB6951
:1018A8005B0002FA03F3BA691343BB617B68BA6948
:1018B8009A607B685B68BB610122FB6902FA03F3EB
:1018C800DB43BA691340BB613B685B681B0903F0E3
:1018D8000102FB6902FA03F3BA691343BB617B682F
:1018E800BA695A607B68DB68BB61FB695B000322ED
:1018F80002FA03F3DB43BA691340BB613B689A6899
:10190800FB695B0002FA03F3BA691343BB617B68A6
:10191800BA69DA603B685B68022B03D03B685B6896
:10192800122B23D1FB69DA087B68083253F822307E
:10193800BB61FB6903F007039B000F2202FA03F364
:10194800DB43BA691340BB613B681A69FB6903F062
:1019580007039B0002FA03F3BA691343BB61FB69EF
:10196800DA087B680832B96943F822107B681B687B
:10197800BB61FB695B00032202FA03F3DB43BA692C
:101988001340BB613B685B6803F00302FB695B00C3
:1019980002FA03F3BA691343BB617B68BA691A6038
:1019A8003B685B6803F08053002B00F0A2800023A3
:1019B800FB60564A554B5B6C43F480435364534B6E
:1019C8005B6C03F48043FB60FB68514AFB699B082E
:1019D800023352F82330BB61FB6903F003039B0019
:1019E8000F2202FA03F3DB43BA691340BB617B6839
:1019F800484A934219D07B68474A934213D07B6880
:101A0800464A93420DD07B68454A934207D07B688B
:101A1800444A934201D1042308E0072306E0032344
:101A280004E0022302E0012300E00023FA6902F047
:101A3800030292009340BA691343BB613449FB69BE
:101A48009B080233BA6941F82320374B1B68BB61F6
:101A58003B69DB43BA691340BB613B685B6803F4CD
:101A68008033002B03D0BA693B691343BB612E4A0C
:101A7800BB6913602C4B5B68BB613B69DB43BA698C
:101A88001340BB613B685B6803F40033002B03D051
:101A9800BA693B691343BB61234ABB695360224B54
:101AA8009B68BB613B69DB43BA691340BB613B6818
:101AB8005B6803F48013002B03D0BA693B691343B6
:101AC800BB61194ABB699360174BDB68BB613B6913
:101AD800DB43BA691340BB613B685B6803F40013DE
:101AE800002B03D0BA693B691343BB610E4ABB693B
:101AF800D360FB690133FB61FB690F2B7FF6A2AE54
:101B080000BF2437BD465DF8047B704700380240AB
:101B18000038014000000240000402400008024072
:101B2800000C024000100240003C014080B483B029
:101B380000AF78600B467B8013467B707B78002B68
:101B480003D07A887B689A6103E07B881A047B68F3
:101B58009A6100BF0C37BD465DF8047B704780B4BE
:101B680083B000AF78600B467B807B685A697B88BE
:101B78001A407B889A4204D17B881A047B689A6150
:101B880002E07A887B689A6100BF0C37BD465DF831
:101B9800047B704780B586B000AF78607B68002B07
:101BA80001D101235BE27B681B6803F00103002B72
:101BB80075D0A34B9B6803F00C03042B0CD0A04BEF
:101BC8009B6803F00C03082B12D19D4B5B6803F450
:101BD8008003B3F5800F0BD1994B1B6803F40033D6
:101BE800002B5BD07B685B68002B57D1012336E262
:101BF8007B685B68B3F5803F06D1914A904B1B68C0
:101C080043F4803313601DE07B685B68B3F5A02F55
:101C18000CD18B4A8A4B1B6843F480231360884A93
:101C2800874B1B6843F4803313600BE0844A844B72
:101C38001B6823F480331360814A814B1B6823F4AB
:101C4800802313607B685B68002B13D0FFF7DAFCF6
:101C5800386108E0FFF7D6FC02463B69D31A642BCB
:101C680001D90323FBE1764B1B6803F40033002BF7
:101C7800F0D014E0FFF7C6FC386108E0FFF7C2FCBB
:101C880002463B69D31A642B01D90323E7E16C4B65
:101C98001B6803F40033002BF0D100E000BF7B6821
:101CA8001B6803F00203002B63D0654B9B6803F0AD
:101CB8000C03002B0BD0624B9B6803F00C03082B22
:101CC8001CD15F4B5B6803F48003002B16D15C4B7F
:101CD8001B6803F00203002B05D07B68DB68012B2F
:101CE80001D00123BBE15649554B1B6823F0F8028C
:101CF8007B681B69DB0013430B603AE07B68DB6899
:101D0800002B20D04F4B01221A60FFF77BFC386173
:101D180008E0FFF777FC02463B69D31A022B01D98A
:101D280003239CE1464B1B6803F00203002BF0D011
:101D38004349434B1B6823F0F8027B681B69DB00AF
:101D480013430B6015E03F4B00221A60FFF75AFC63
:101D5800386108E0FFF756FC02463B69D31A022BAC
:101D680001D903237BE1364B1B6803F00203002BE8
:101D7800F0D17B681B6803F00803002B30D07B6828
:101D88005B69002B16D0304B01221A60FFF73AFC32
:101D9800386108E0FFF736FC02463B69D31A022B8C
:101DA80001D903235BE1264B5B6F03F00203002B91
:101DB800F0D015E0244B00221A60FFF723FC3861AD
:101DC80008E0FFF71FFC02463B69D31A022B01D932
:101DD800032344E11A4B5B6F03F00203002BF0D19D
:101DE8007B681B6803F00403002B00F0A08000232D
:101DF800FB75134B1B6C03F08053002B0FD1002392
:101E0800BB600F4A0E4B1B6C43F0805313640C4BA2
:101E18001B6C03F08053BB60BB680123FB750B4B45
:101E28001B6803F48073002B21D1084A074B1B68F9
:101E380043F480731360FFF7E5FB386111E000BFDE
:101E48000038024000004742800E474200700040C0
:101E5800FFF7D8FB02463B69D31A022B01D90323AB
:101E6800FDE0814B1B6803F48073002BF0D07B6886
:101E78009B68012B06D17D4A7C4B1B6F43F0010305
:101E880013671CE07B689B68052B0CD1774A774B5E
:101E98001B6F43F004031367744A744B1B6F43F0C2
:101EA800010313670BE0714A704B1B6F23F00103AA
:101EB80013676E4A6D4B1B6F23F0040313677B682F
:101EC8009B68002B15D0FFF79DFB38610AE0FFF7F0
:101ED80099FB02463B69D31A41F28832934201D9F1
:101EE8000323BCE0614B1B6F03F00203002BEED011
:101EF80014E0FFF787FB38610AE0FFF783FB02462F
:101F08003B69D31A41F28832934201D90323A6E0F0
:101F1800564B1B6F03F00203002BEED1FB7D012B08
:101F280005D1524A514B1B6C23F0805313647B68D4
:101F38009B69002B00F092804C4B9B6803F00C03CC
:101F4800082B5CD07B689B69022B41D1484B00224F
:101F58001A60FFF757FB386108E0FFF753FB0246AA
:101F68003B69D31A022B01D9032378E03F4B1B6846
:101F780003F00073002BF0D13C497B68DA697B6879
:101F88001B6A1A437B685B6A9B011A437B689B6ADE
:101F98005B08013B1B041A437B68DB6A1B0613437F
:101FA8004B60334B01221A60FFF72CFB386108E0C5
:101FB800FFF728FB02463B69D31A022B01D90323FA
:101FC8004DE02A4B1B6803F00073002BF0D045E06E
:101FD800274B00221A60FFF715FB386108E0FFF76E
:101FE80011FB02463B69D31A022B01D9032336E0C1
:101FF8001E4B1B6803F00073002BF0D12EE07B68AA
:102008009B69012B01D1012329E0184B5B68FB6018
:10201800FB6803F480027B68DB699A421CD1FB6889
:1020280003F03F027B681B6A9A4215D1FA6847F6AB
:10203800C07313407A68526A93420DD1FB6803F467
:1020480040327B689B6A9A4206D1FB6803F0706253
:102058007B68DB6A9A4201D0012300E0002318461E
:102068001837BD4680BD00BF0070004000380240F0
:102078006000474280B584B000AF786039607B6803
:10208800002B01D10123CCE0684B1B6803F00F0241
:102098003B689A420CD2654B3A68D2B21A70634BCD
:1020A8001B6803F00F023B689A4201D00123B8E095
:1020B8007B681B6803F00203002B20D07B681B6839
:1020C80003F00403002B05D0594A594B9B6843F48D
:1020D800E05393607B681B6803F00803002B05D06E
:1020E800534A534B9B6843F4604393605049504BA9
:1020F8009B6823F0F0027B689B6813438B607B68C6
:102108001B6803F00103002B44D07B685B68012B3C
:1021180007D1474B1B6803F40033002B19D1012367
:102128007FE07B685B68022B03D07B685B68032BCE
:1021380007D13F4B1B6803F00073002B09D1012323
:102148006FE03B4B1B6803F00203002B01D1012316
:1021580067E03749364B9B6823F003027B685B686E
:1021680013438B60FFF74EFAF8600AE0FFF74AFA6C
:102178000246FB68D31A41F28832934201D90323FD
:102188004FE02B4B9B6803F00C027B685B689B005D
:102198009A42EBD1254B1B6803F00F023B689A4229
:1021A8000CD9224B3A68D2B21A70204B1B6803F044
:1021B8000F023B689A4201D0012332E07B681B681A
:1021C80003F00403002B08D01949194B9B6823F42A
:1021D800E0527B68DB6813438B607B681B6803F005
:1021E8000803002B09D01249114B9B6823F4604265
:1021F8007B681B69DB0013438B6000F021F8014604
:102208000B4B9B681B0903F00F030A4AD35C21FAA6
:1022180003F3094A1360094B1B681846FFF7AEF928
:10222800002318461037BD4680BD00BF003C024061
:102238000038024004540008000000200400002078
:102248002DE9F04F87B000AF0022FA6000227A61D2
:102258000022BA6000223A61514A926802F00C02E8
:10226800042A07D0082A08D0002A40F090804D4B55
:102278003B618FE04C4B3B618CE0494A526802F06D
:102288003F02FA60464A526802F48002002A23D0CC
:10229800434B5B689B094FF0000440F2FF114FF07D
:1022A800000203EA010304EA02043F4A02FB04F1C4
:1022B800002202FB03F20A443B49A3FB0101531825
:1022C8001946FB684FF000041A462346FEF71AFC2D
:1022D80003460C467B614CE0314A5268920911462C
:1022E8004FF0000240F2FF154FF0000605EA010525
:1022F80006EA0206294632464FEA421B4BEAD16BF0
:102308004FEA411A51465A46AA46B34655465E46D2
:102318004D1B62EB060629463246940144EA916455
:102328008B015B1A64EB02044FEAC40949EA53794A
:102338004FEAC30843464C4655465E46ED1846EB01
:1023480004062B463446A2027A607A6842EA93521F
:102358007A609B023B6097E8180018462146FB68A4
:102368004FF000041A462346FEF7CCFB03460C4602
:102378007B610B4B5B681B0C03F0030301335B00B1
:10238800BB607A69BB68B2FBF3F33B6102E0054BC3
:102398003B6100BF3B6918461C37BD46BDE8F08F5E
:1023A800003802400024F40040787D0180B400AF7A
:1023B800034B1B681846BD465DF8047B704700BF99
:1023C8000000002080B500AFFFF7F0FF0146054B85
:1023D8009B689B0A03F00703034AD35C21FA03F3C3
:1023E800184680BD003802401454000880B500AF7C
:1023F800FFF7DCFF0146054B9B685B0B03F0070307
:10240800034AD35C21FA03F3184680BD0038024022
:102418001454000880B582B000AF78607B68002B48
:1024280001D1012355E07B6800229A627B6893F80A
:102438005130DBB2002B06D17B68002283F8502094
:102448007868FEF753FF7B68022283F851207B6887
:102458001B687A681268126822F040021A607B686A
:102468001B687A6851687A68926811437A68D268FA
:1024780011437A68126911437A68526911437A687C
:10248800926902F4007211437A68D26911437A683A
:10249800126A11437A68926A0A431A607B681B6859
:1024A8007A689269120C02F004017A68526A0A4347
:1024B8005A607B681B687A681268D26922F40062E5
:1024C800DA617B6800225A657B68012283F8512013
:1024D800002318460837BD4680BD80B58CB000AFD4
:1024E800F860B9607A607B800123FB62002387F87B
:1024F8002B30FB6893F85030012B01D1022388E17F
:10250800FB68012283F85020FFF77CF87862FB68AB
:1025180093F8513087F82330FB685B68FB617B8850
:102528007B8397F82330012B0FD0FB69B3F5827FAB
:1025380007D1FB689B68002B03D197F82330042B45
:1025480003D0022387F82B3059E1BB68002B05D054
:102558007B68002B02D07B88002B03D1012387F8EE
:102568002B304CE1FB6893F85130DBB2042B03D0DD
:10257800FB68052283F85120FB6800225A65FB6836
:102588007A689A63FB687A88DA87FB687A889A8718
:10259800FB68BA681A63FB687A88DA86FB687A8807
:1025A8009A86FB6800221A64FB6800225A64FB685A
:1025B8001B681B6803F04003402B07D0FB681B68AF
:1025C800FA681268126842F040021A60FB68DB6819
:1025D800B3F5006F78D1FB685B68002B02D07B8B6A
:1025E800012B66D1FB681B68FA68126B1288DA60E7
:1025F800FB681B6B9A1CFB681A63FB68DB8E9BB23B
:10260800013B9AB2FB68DA8653E0FB681B689B685B
:1026180003F00203022B1BD1FB68DB8E9BB2002B5D
:1026280016D0FB6A012B13D1FB681B68FA68126B82
:102638001288DA60FB681B6B9A1CFB681A63FB68DC
:10264800DB8E9BB2013B9AB2FB68DA860023FB6201
:10265800FB681B689B6803F00103012B19D1FB6819
:10266800DB8F9BB2002B14D0FB689B6BFA68126857
:10267800D26892B21A80FB689B6B9A1CFB689A63BB
:10268800FB68DB8F9BB2013B9AB2FB68DA870123B8
:10269800FB62FEF7B7FF02467B6AD21ABB6B9A420F
:1026A80007D3BB6BB3F1FF3F03D0032387F82B306D
:1026B800A5E0FB68DB8E9BB2002BA6D1FB68DB8F05
:1026C8009BB2002BA1D17CE0FB685B68002B02D099
:1026D8007B8B012B6BD1FB681B680C33FA68126B80
:1026E80012781A70FB681B6B5A1CFB681A63FB682C
:1026F800DB8E9BB2013B9AB2FB68DA8657E0FB6837
:102708001B689B6803F00203022B1CD1FB68DB8E5D
:102718009BB2002B17D0FB6A012B14D1FB681B68F6
:102728000C33FA68126B12781A70FB681B6B5A1C10
:10273800FB681A63FB68DB8E9BB2013B9AB2FB68AD
:10274800DA860023FB62FB681B689B6803F00103C1
:10275800012B19D1FB68DB8F9BB2002B14D0FB68CF
:102768009B6BFA681268D268D2B21A70FB689B6BCE
:102778005A1CFB689A63FB68DB8F9BB2013B9AB2D9
:10278800FB68DA870123FB62FEF73CFF02467B6A9F
:10279800D21ABB6B9A4203D3BB6BB3F1FF3F02D192
:1027A800BB6B002B03D1032387F82B3027E0FB6892
:1027B800DB8E9BB2002BA2D1FB68DB8F9BB2002B78
:1027C8009DD17A6AB96BF86800F092F80346002B3D
:1027D80006D0012387F82B30FB6820225A650EE0CB
:1027E800FB689B68002B0AD100237B61FB681B6890
:1027F800DB687B61FB681B689B687B617B69FB68A6
:10280800012283F85120FB68002283F8502097F8B2
:102818002B3018463037BD4680BD80B584B000AF38
:10282800F860B9603B601346FB714CE03B68B3F15C
:10283800FF3F48D0FEF7E6FE0246BB69D21A3B6866
:102848009A4202D23B68002B3DD1FB681B68FA68AC
:102858001268526822F0E0025A60FB685B68B3F5C0
:10286800827F11D1FB689B68B3F5004F04D0FB68E9
:102878009B68B3F5806F07D1FB681B68FA6812681C
:10288800126822F040021A60FB689B6AB3F5005F89
:102898000FD1FB681B68FA681268126822F40052AC
:1028A8001A60FB681B68FA681268126842F40052E2
:1028B8001A60FB68012283F85120FB68002283F824
:1028C800502003230FE0FB681B689A68BB681A4016
:1028D800BB689A420CBF01230023DBB21A46FB797E
:1028E8009A42A3D1002318461037BD4680BD000088
:1028F80080B588B002AFF860B9607A601B4B1B687E
:102908001B4AA2FB03235B0D4FF47A7202FB03F30D
:102918007B61FB685B68B3F5827F12D17B680093AB
:10292800BB6800228021F868FFF777FF0346002B79
:1029380016D0FB685B6D43F02002FB685A650323E1
:102948000FE07B69002B0AD07B69013B7B61FB6848
:102958001B689B6803F08003802BF2D000E000BF67
:10296800002318461837BD4680BD00BF0000002070
:10297800819F5E1680B582B000AF78607B68002BBF
:1029880001D101233FE07B6893F83930DBB2002B9B
:1029980006D17B68002283F838207868FEF784FD2A
:1029A8007B68242283F839207B681B687A68126860
:1029B800D26822F40052DA60786800F00BF97B687C
:1029C8001B687A681268126922F490421A617B685F
:1029D8001B687A681268526922F02A025A617B6879
:1029E8001B687A681268D26842F40052DA607B6821
:1029F8000022DA637B68202283F839207B68202252
:102A080083F83A20002318460837BD4680BD80B5B4
:102A180088B002AFF860B9603B601346FB800023C2
:102A28007B61FB6893F83930DBB2202B40F0828061
:102A3800BB68002B02D0FB88002B01D101237AE070
:102A4800FB6893F83830012B01D1022373E0FB684F
:102A5800012283F83820FB680022DA63FB68212210
:102A680083F83920FEF7CEFD7861FB68FA889A84EE
:102A7800FB68FA88DA84FB68002283F8382041E092
:102A8800FB68DB8C9BB2013B9AB2FB68DA84FB687B
:102A98009B68B3F5805F21D13B6800937B69002276
:102AA8008021F86800F04BF80346002B01D003237F
:102AB80041E0BB683B61FB681B683A691288C2F356
:102AC80008025A60FB681B69002B03D1BB680233FC
:102AD800BB6017E0BB680133BB6013E03B68009341
:102AE8007B6900228021F86800F029F80346002B52
:102AF80001D003231FE0FB681A68BB68591CB96042
:102B08001B785360FB68DB8C9BB2002BB8D13B6809
:102B180000937B6900224021F86800F010F8034612
:102B2800002B01D0032306E0FB68202283F839201C
:102B3800002300E0022318461837BD4680BD80B543
:102B480084B000AFF860B9603B601346FB712CE0BD
:102B5800BB69B3F1FF3F28D0BB69002B07D0FEF754
:102B680051FD02463B68D21ABB699A421DD9FB68DF
:102B78001B68FA681268D26822F4D072DA60FB68BF
:102B88001B68FA681268526922F001025A61FB68F0
:102B9800202283F83920FB68202283F83A20FB683A
:102BA800002283F8382003230FE0FB681B681A68AB
:102BB800BB681A40BB689A420CBF01230023DBB2F2
:102BC8001A46FB799A42C3D0002318461037BD46EF
:102BD80080BD00002DE9F04FA3B000AFF867FB6F90
:102BE8001968FB6F1B681B6923F44052FB6FDB6895
:102BF80013430B61FB6F9A68FB6F1B691A43FB6FEA
:102C08005B691A43FB6FDB691343C7F88430FB6FBA
:102C18001968FB6F1B68DB6823F4164222F00C026C
:102C2800D7F884301343CB60FB6F1968FB6F1B68C0
:102C38005B6923F44072FB6F9B6913434B61FB6F25
:102C4800DB69B3F5004F40F07181FB6F1B68B44A34
:102C5800934205D0FB6F1B68B24A934240F0B180A3
:102C6800FFF7C4FBC7F88000FB6F1D68D7F88030FA
:102C780019464FF000020B461446DB1844EB0404D7
:102C88005B1844EB0204E0007864786C40EA537007
:102C98007864DB003B64D7E9103413EB010844EB9C
:102CA800020940464946FB6F5B684FF00004DB1899
:102CB80044EB04041A462346FDF724FF03460C465A
:102CC8001A46994BA3FB02235B091E01D7F88030F3
:102CD80019464FF000020B461446DB1844EB040477
:102CE8005B1844EB0204E000F863F86B40EA5370A9
:102CF800F863DB00BB63D7E90E3413EB010844EB40
:102D0800020940464946FB6F5B684FF00004DB1838
:102D180044EB04041A462346FDF7F4FE03460C462A
:102D28001A46814BA3FB02135B09642101FB03F3E1
:102D3800D31ADB0032337C4AA2FB03235B095B0016
:102D480003F4F8731E44D7F8803019464FF0000298
:102D58000B461446DB1844EB04045B1844EB0204EE
:102D6800E0007863786B40EA53707863DB003B637C
:102D7800D7E90C3413EB010844EB020940464946F5
:102D8800FB6F5B684FF00004DB1844EB04041A4641
:102D98002346FDF7B7FE03460C461A46624BA3FBD3
:102DA80002135B09642101FB03F3D31ADB003233FE
:102DB8005D4AA2FB03235B0903F007033344AB60BE
:102DC80040E2FFF7FFFAC7F88000FB6F1A683A671E
:102DD800D7F8803019464FF000020B461446DB182E
:102DE80044EB04045B1844EB0204E000F862F86A60
:102DF80040EA5370F862DB00BB62D7E90A345D1819
:102E080044EB020628463146FB6F5B684FF000042E
:102E1800DB1844EB04041A462346FDF773FE034609
:102E28000C461A46404BA3FB02235B091E01D7F848
:102E3800803019464FF000020B461446DB1844EB6D
:102E480004045B1844EB02044FEAC40B4BEA537BBF
:102E58004FEAC30A53465C4613EB010A44EB020BE4
:102E680050465946FB6F5B684FF00004DB1844EB93
:102E780004041A462346FDF745FE03460C461A4647
:102E8800294BA3FB02135B09642101FB03F3D31A4B
:102E9800DB003233244AA2FB03235B095B0003F403
:102EA800F8731E44D7F8803019464FF000020B46DD
:102EB8001446DB1844EB04045B1844EB02044FEAA5
:102EC800C40949EA53794FEAC30843464C4613EB11
:102ED800010844EB020940464946FB6F5B684FF026
:102EE8000004DB1844EB04041A462346FDF70AFEE7
:102EF80003460C461A460C4BA3FB02135B096421DC
:102F080001FB03F3D31ADB003233074AA2FB032386
:102F18005B0903F0070333443A6F936092E100BF03
:102F280000100140001401401F85EB51FB6F1A6827
:102F3800C14B9A4205D0FB6F1A68C04B9A4240F0C9
:102F4800BF80FFF753FAC7F88000FB6F1E68D7F8F9
:102F5800803019464FF000020B461446DB1844EB4C
:102F680004045B1844EB0204E0007862786A40EAE3
:102F780053707862DB003B62D7E9083413EB010831
:102F880044EB020940464946FB6F5B684FF000047A
:102F9800A200FA65FA6D42EA9372FA659B00BB6576
:102FA800D7E91623FDF7AEFD03460C461A46A44B97
:102FB800A3FB02235B091D01D7F8803019464FF0A7
:102FC80000020B461446DB1844EB04045B1844EB80
:102FD8000204E000F861F86940EA5370F861DB0028
:102FE800BB61D7E9063413EB010844EB02094046FC
:102FF8004946FB6F5B684FF00004A2007A657A6D62
:1030080042EA93727A659B003B65D7E91423FDF782
:1030180079FD03460C461A46894BA3FB02135B094C
:10302800642101FB03F3D31A1B013233844AA2FB48
:1030380003235B0903F0F0031D44D7F880301946D9
:103048004FF000020B461446DB1844EB04045B18EF
:1030580044EB0204E0007861786940EA53707861D3
:10306800DB003B61D7E9043413EB010844EB0209A8
:1030780040464946FB6F5B684FF00004A200FA64C3
:10308800FA6C42EA9372FA649B00BB64D7E9122394
:10309800FDF738FD03460C461A46694BA3FB02139D
:1030A8005B09642101FB03F3D31A1B013233644A21
:1030B800A2FB03235B0903F00F032B44B360C1E0B9
:1030C800FFF780F9C7F88000FB6F1B68BB65D7F86E
:1030D800803019464FF000020B461446DB1844EBCB
:1030E80004045B1844EB0204E60046EA5376DD006C
:1030F8002B4634465D1844EB020628463146FB6FE2
:103108005B684FF00004A5007D677D6F45EA937505
:103118007D679C003C67D7E91C23FDF7F3FC034659
:103128000C461A46464BA3FB02135B091D01D7F850
:10313800803019464FF000020B461446DB1844EB6A
:1031480004045B1844EB0204E000F860F86840EA05
:103158005370F860D800B860D7E9023413EB01085F
:1031680044EB020940464946FB6F5B684FF0000498
:10317800A600FE66FE6E46EA9376FE669C00BC6676
:10318800D7E91A23FDF7BEFC03460C461A462C4B1A
:10319800A3FB02135B09642101FB03F3D31A1B0190
:1031A8003233274AA2FB03135B0903F0F0031D44E3
:1031B800D7F8803019464FF000020B461446DB184A
:1031C80044EB04045B1844EB0204E0007860786880
:1031D80040EA53707860D800386097E8180013EB1D
:1031E800010844EB020940464946FB6F5B684FF013
:1031F8000004A6007E667E6E46EA93767E669C0094
:103208003C66D7E91823FDF77DFC03460C461A46B1
:103218000B4BA3FB02135B09642101FB03F3D31AD5
:103228001B013233064AA2FB03135B0903F00F03A9
:103238002B44BA6D936005E0001001400014014072
:103248001F85EB5100BF8C37BD46BDE8F08F00BF2E
:1032580080B584B000AFF860B9607A60FB687A68BE
:103268005A60FB68BA681A60F86800F0A0F9002391
:1032780018461037BD4680BD80B586B000AFF860EF
:10328800B9607A60FB68002B02D1FDF789FFFEE781
:10329800BB68002B02D1FDF783FFFEE77B68002B9C
:1032A80002D1FDF77DFFFEE7BB681B78184600F0EA
:1032B80001FB03463B74BB685B78184600F0FAFADA
:1032C80003467B74BB689B78184600F0F3FA034604
:1032D800BB747B681B78184600F0ECFA0346FB7455
:1032E8007B6893F90130DBB2184600F0E3FA034635
:1032F8003B757B6893F90230DBB2184600F0DAFAC6
:1033080003467B757B68DB78184600F0D3FA0346E2
:10331800BB7507F1100207230221F86800F0E4F9F1
:10332800002318461837BD4680BD80B586B000AF6B
:10333800F860B9607A60FB68002B02D1FDF730FFB6
:10334800FEE7BB68002B02D1FDF72AFFFEE77B688A
:10335800002B02D1FDF724FFFEE70023FB7507F1E0
:10336800170201230221F86800F033F9FB7D5BB2F4
:10337800002B0BDAFB7D63F07F03DBB2FB7507F1F3
:10338800170201230221F86800F0AEF907F11003D3
:1033980000221A60C3F8032007F110020723022154
:1033A800F86800F016F93B7C184600F0A7FA0346C7
:1033B8001A46BB681A707B7C184600F09FFA0346D1
:1033C8001A46BB685A70BB7C184600F097FA034649
:1033D8001A46BB689A70FB7C184600F08FFA0346C1
:1033E8001A467B681A703B7D184600F087FA034638
:1033F8005AB27B685A707B7D184600F07FFA034604
:103408005AB27B689A70BB7D184600F077FA03467B
:103418001A467B68DA70002318461837BD4680BD07
:1034280080B584B000AF786039607B68002B02D12A
:10343800FDF7B6FEFEE73B68002B02D1FDF7B0FEB4
:10344800FEE73B681B7803F00103002B06D03B68BE
:103458005B78184600F02EFA034600E08023FB73E1
:103468003B681B7803F00203002B06D03B689B786F
:10347800184600F01FFA034600E08023BB733B6840
:103488001B7803F00403002B06D03B68DB78184652
:1034980000F010FA034600E080237B733B681B783A
:1034A80003F00803002B08D03B6893F90430DBB223
:1034B800184600F0FFF9034600E080233B73002321
:1034C800FB7207F10B0201230121786800F081F8F3
:1034D800FB7A03F00803002B0BD0FB7A23F00803D8
:1034E800DBB2FB7207F10B0201230121786800F0BF
:1034F800FBF807F10B0201230121786800F069F855
:10350800FB7A43F00203DBB2FB7207F10B020123E3
:103518000121786800F0E8F807F10F02012309217A
:10352800786800F0E1F807F10E0201230A217868B3
:1035380000F0DAF807F10D0201230B21786800F09A
:10354800D3F807F10C0201230C21786800F0CCF8BD
:10355800002318461037BD4680BD80B584B000AF43
:1035680078607B68002B02D1FDF71AFEFEE758232E
:10357800FB7307F10F0201230021786800F0B4F80B
:10358800002318461037BD4680BD80B582B000AF15
:1035980078607B68002B02D1FDF702FEFEE77B68AE
:1035A8005B680120984700BF0837BD4680BD80B5DD
:1035B80082B000AF78607B68002B02D1FDF7F0FD88
:1035C800FEE77B685B680020984700BF0837BD4668
:1035D80080BD2DE9F04F8DB000AF7861FA60BB6017
:1035E8000B46FB747B69002B02D1FDF7D9FDFEE782
:1035F800FB68002B02D1FDF7D3FDFEE7BB68002B6B
:1036080002D1FDF7CDFDFEE7FB7C63F06F0387F881
:103618002B30BB68591C6B461E460B46013B7B6230
:103628000A464FF00003D8007860786840EA527084
:103638007860D3003B600A464FF000034FEAC30BA3
:103648004BEA527B4FEAC20ACB1DDB08DB00ADEB2D
:10365800030D6B4600333B62BB68591C0B46013BAC
:10366800FB610A464FF000034FEAC30949EA527961
:103678004FEAC2080A464FF00003DD0045EA5275DA
:10368800D400CB1DDB08DB00ADEB030D6B4600332C
:10369800BB613B6A97F82B201A707869FFF775FFB2
:1036A8007B691C68386AB969BB685A1C4FF4FA739D
:1036B800A0477869FFF77BFF0023FB620AE0FA68FE
:1036C800FB6A1344FA6A0132B9698A5C1A70FB6AA8
:1036D8000133FB62FA6ABB689A42F0D3B54600BF71
:1036E8003437BD46BDE8F08F2DE9F04F8DB000AFFF
:1036F8007861FA60BB600B46FB747B69002B02D1D2
:10370800FDF74EFDFEE7FB68002B02D1FDF748FDF3
:10371800FEE7BB68002B02D1FDF742FDFEE7FB7C0C
:1037280043F0100387F82B30BB68591C6B461E46C4
:103738000B46013B7B620A464FF00003D8007860D5
:10374800786840EA52707860D3003B600A464FF0D0
:1037580000034FEAC30B4BEA527B4FEAC20ACB1D68
:10376800DB08DB00ADEB030D6B4600333B62BB6847
:10377800591C0B46013BFB610A464FF000034FEA18
:10378800C30949EA52794FEAC2080A464FF00003D2
:10379800DD0045EA5275D400CB1DDB08DB00ADEB3C
:1037A800030D6B460033BB613B6A97F82B201A70F8
:1037B8000123FB620CE0FB6A013BFA6813441978A9
:1037C8003A6AFB6A13440A461A70FB6A0133FB62C1
:1037D800BB685A1CFB6A9A42EDD87869FFF7D5FE98
:1037E8007B691C68386AB969BB685A1C4FF4FA735C
:1037F800A0477869FFF7DBFEB54600BF3437BD4602
:10380800BDE8F08F80B584B000AF78607B68002B8E
:1038180002D1FDF7C5FCFEE707F10F0201230121E4
:103828007868FFF7D6FEFB7B23F00803DBB2FB7357
:1038380007F10F02012301217868FFF755FF00BF48
:103848001037BD4680BD80B584B000AF78607B6816
:10385800002B02D1FDF7A4FCFEE707F10F020123BC
:1038680001217868FFF7B5FEFB7B23F00403DBB288
:10387800FB7307F10F02012301217868FFF734FF7A
:1038880000BF1037BD4680BD80B584B000AF7860FA
:103898007B68002B02D1FDF783FCFEE707F10F02DE
:1038A800012301217868FFF794FEFB7B1846103747
:1038B800BD4680BD80B483B000AF0346FB71FB7981
:1038C8000D4AA2FB0323DB08DBB21B0158B2FA79CD
:1038D800094BA3FB0213D9080B469B000B445B0062
:1038E800D31ADBB25BB203435BB2DBB218460C37C8
:1038F800BD465DF8047B7047CDCCCCCC80B483B09A
:1039080000AF0346FB71FB791B09DBB21A46920034
:1039180013445B00DAB2FB7903F00F03DBB2134404
:10392800DBB218460C37BD465DF8047B70470000D3
:1039380080B582B000AF0346FB71054B1868F91DCE
:10394800FA230122FFF763F800BF0837BD4680BDA0
:103958002800002080B483B000AF7860044A7B68F8
:10396800136000BF0C37BD465DF8047B704700BF8D
:10397800280000200FB480B582B000AF07F114030F
:103988007B607968386901F031FC074B1868FA23C5
:1039980002220649FFF73BF800BF0837BD46BDE8DD
:1039A800804004B0704700BF28000020745300080E
:1039B80080B485B000AFB9607A603B600346FB73A2
:1039C80000BF1437BD465DF8047B704780B584B0EE
:1039D80000AFB9607A603B600346FB73FB7B002B4A
:1039E80003D0FB7B1846FFF7A3FF00BF1037BD4687
:1039F80080BD80B485B000AF786039607B68FB60BB
:103A080002E0FB680133FB60FB681B78002B04D0E5
:103A18003B685A1E3A60002BF3D1FA687B68D31AC8
:103A280018461437BD465DF8047B704780B483B0F0
:103A380000AF0346FB71FB792F2B04D9FB79392B97
:103A480001D8012300E0002303F00103DBB218468C
:103A58000C37BD465DF8047B704780B584B000AF75
:103A680078600023FB600EE0FA6813469B0013445D
:103A78005B0018467B681B68591C7A6811601B78C4
:103A88000344303BFB607B681B681B781846FFF7D4
:103A9800CDFF0346002BE7D1FB6818461037BD461B
:103AA80080BD90B587B000AFF860B9607A603B60C0
:103AB8007B683B617B6B03F00203002B25D17B6B9A
:103AC80003F00103002B20D1FB6A7B610AE07A68CE
:103AD800531C7B60FC683B68B9682020A0477B6961
:103AE80001337B617A693B6B9A42F0D30DE0FB6A44
:103AF800013BFB62BA6AFB6A134418787A68531C64
:103B08007B60FC683B68B968A047FB6A002BEED174
:103B18007B6B03F00203002B0ED007E07A68531C7E
:103B28007B60FC683B68B9682020A0477A683B69DD
:103B3800D21A3B6B9A42F1D37B6818461C37BD46B4
:103B480090BD80B588B004AFF860B9607A603B601A
:103B58003B6B03F00203002B36D1FB6A002B18D015
:103B68003B6B03F00103002B13D097F82030002B98
:103B780004D13B6B03F00C03002B0AD0FB6A013B1A
:103B8800FB6206E0FB695A1CFA61BA6913443022E9
:103B98001A70FA69BB6A9A420AD2FB691F2BF1D9DB
:103BA80006E0FB695A1CFA61BA69134430221A709C
:103BB8003B6B03F00103002B06D0FA69FB6A9A42BB
:103BC80002D2FB691F2BECD93B6B03F01003002BCF
:103BD80058D03B6B03F48063002B16D1FB69002B94
:103BE80013D0FA69BB6A9A4203D0FA69FB6A9A420F
:103BF8000BD1FB69013BFB61FB69002B05D07B6A9C
:103C0800102B02D1FB69013BFB617B6A102B0FD1A2
:103C18003B6B03F02003002B0AD1FB691F2B07D84D
:103C2800FB695A1CFA61BA69134478221A701FE0BA
:103C38007B6A102B0FD13B6B03F02003002B0AD0BB
:103C4800FB691F2B07D8FB695A1CFA61BA69134430
:103C580058221A700CE07B6A022B09D1FB691F2BD2
:103C680006D8FB695A1CFA61BA69134462221A70B1
:103C7800FB691F2B06D8FB695A1CFA61BA69134401
:103C880030221A70FB691F2B24D897F82030002B9C
:103C980007D0FB695A1CFA61BA6913442D221A70BD
:103CA80018E03B6B03F00403002B07D0FB695A1C98
:103CB800FA61BA6913442B221A700BE03B6B03F0CC
:103CC8000803002B06D0FB695A1CFA61BA69134431
:103CD80020221A703B6B0393FB6A0293FB690193E2
:103CE800BB6900933B687A68B968F868FFF7D9FE42
:103CF800034618461037BD4680BD80B596B008AF5C
:103D0800F860B9607A603B6000237B633B6C002BF2
:103D180003D17B6D23F010037B657B6D03F4806317
:103D2800002B02D03B6C002B33D03B6CBA6CB3FB3E
:103D3800F2F2B96C01FB02F29B1A87F833307B6B05
:103D48005A1C7A6397F83320092A04D897F8332045
:103D58003032D2B20DE07A6D02F02002002A01D092
:103D6800412100E0612197F833200A44D2B20A3A8F
:103D7800D2B207F138010B4403F8282C3A6CBB6C1B
:103D8800B2FBF3F33B643B6C002B02D07B6B1F2B25
:103D9800CBD97B6D06933B6D0593FB6C0493BB6C91
:103DA800039397F8443002937B6B019307F1100358
:103DB80000933B687A68B968F868FFF7C2FE034663
:103DC80018463837BD4680BD90B597B008AFF86043
:103DD800B9607A603B6000237B63D7E912342343E0
:103DE80003D1BB6E23F01003BB66BB6E03F4806384
:103DF800002B03D0D7E91234234339D0D7E9120175
:103E0800D7E91623FCF77EFE1C46134687F83330A5
:103E18007B6B5A1C7A6397F83320092A04D897F8E1
:103E280033203032D2B20DE0BA6E02F02002002AFE
:103E380001D0412100E0612197F833200A44D2B231
:103E48000A3AD2B207F138010B4403F8282CD7E913
:103E58001623D7E91201FCF755FE03460C46C7E9BD
:103E68001234D7E91234234302D07B6B1F2BC5D9F8
:103E7800BB6DBA6E06927A6E05923A6E04920393FF
:103E880097F8503002937B6B019307F1100300936E
:103E98003B687A68B968F868FFF753FE0346184626
:103EA8003C37BD4690BD000090B59DB004AF786129
:103EB8003961FA60BB6087ED000B0023FB654FF0AA
:103EC80000034FF00004C7E91034D7E90023D7E90D
:103ED8000001FCF79DFD0346002B0FD1BB6F039338
:103EE8007B6F029303230193AD4B0093BB68FA6881
:103EF80039697869FFF7D5FD034633E24FF0FF32A1
:103F08006FF48013D7E90001FCF78CFD0346002B02
:103F18000FD0BB6F03937B6F029304230193A14BD4
:103F28000093BB68FA6839697869FFF7BAFD0346F8
:103F380018E24FF0FF329C4BD7E90001FCF790FDE7
:103F48000346002B1DD0BB6F03F00403002B01D0E8
:103F5800964B00E0964BBA6F02F00402002A01D09B
:103F6800042200E00322B96F0391796F0291019254
:103F78000093BB68FA6839697869FFF792FD0346D0
:103F8800F0E183A3D3E90023D7E90001FCF768FD3A
:103F98000346002B09D180A3D3E90023D7E9000108
:103FA800FCF740FD0346002B0FD0BB6F02937B6FDD
:103FB80001933B6F009397ED000BBB68FA68396972
:103FC800786900F0D9F90346CCE1002387F85B3023
:103FD8004FF000024FF00003D7E90001FCF722FD83
:103FE8000346002B0ED0012387F85B30D7E9002366
:103FF8004FF000004FF00001FCF7EEF803460C46C6
:1040080087E81800BB6F03F48063002B0ED10623EA
:104018003B670BE0FB6D5A1CFA6507F1600213441D
:10402800302203F8482C3B6F013B3B67FB6D1F2B8D
:1040380002D83B6F092BEDD8D7E90001FCF71AFD30
:1040480003467B65786DFCF715FA03460C461A465D
:104058002346D7E90001FCF7BFF803460C4618468B
:104068002146544A3B6FDB00134418CB1A462346BB
:10407800FCF766FA03460C46C7E90E34D7E90E0189
:10408800FCF720FD03463B65386DFCF7E3F9034672
:104098000C461A462346D7E90E01FCF79DF803465D
:1040A8000C46C7E910344FF00002434BD7E9100122
:1040B800FCF7D6FC0346002B17D03B6D01333B655C
:1040C800386DFCF7C7F93B4A3B6FDB00134418CB4C
:1040D8001A462346FCF7BAFC0346002B1AD00023E5
:1040E8003B657B6D01337B6514E04FF00002324B7A
:1040F800D7E91001FCF796FC0346002B0AD13B6D6B
:10410800002B04D03B6D03F00103002B02D03B6D64
:1041180001333B653B6F002B36D1786DFCF7AAF96C
:1041280003460C461A462346D7E90001FCF754F823
:1041380003460C46C7E9103401231C464FF0000221
:104148001D4BD7E91001FCF76DFC0346002B01D18C
:1041580000231C46E3B283F00103DBB2002B09D134
:104168004FF00002144BD7E91001FCF779FC034625
:10417800002B67D07B6D03F00103002B00F08580D6
:104188007B6D01337B6580E03B6FFB6437E000BFEC
:104198000000000065CDCD410000000065CDCDC117
:1041A800EC530008F0530008FFFFEF7FF8530008B6
:1041B80000540008205400080000E03FFB6C013B5D
:1041C800FB64F96D4B1CFB65386D684BA3FB002342
:1041D800DA0813469B0013445B00C21AD3B230338B
:1041E800DAB207F160030B4403F8482C3B6D5F4AD1
:1041F800A2FB0323DB083B653B6D002B03D0FB6D63
:104208001F2BDBD90AE000BF08E0FB6D5A1CFA65DA
:1042180007F160021344302203F8482CFB6D1F2B72
:1042280004D8FB6C5A1EFA64002BEED1FB6D1F2BD1
:104238002BD8FB6D5A1CFA6507F1600213442E2235
:1042480003F8482C21E0F86D431CFB657A6D484B58
:1042580083FB02139910D317C91A0B469B000B4412
:104268005B00D11ACBB23033DAB207F160030344F2
:1042780003F8482C7B6D3E4A82FB03129210DB1731
:10428800D31A7B657B6D002B03D0FB6D1F2BDAD90E
:1042980000E000BFBB6F03F00203002B24D1BB6F0B
:1042A80003F00103002B1FD07B6F002B15D097F86C
:1042B8005B30002B04D1BB6F03F00C03002B0CD038
:1042C8007B6F013B7B6708E0FB6D5A1CFA6507F1C1
:1042D80060021344302203F8482CFA6D7B6F9A422F
:1042E80002D2FB6D1F2BEFD9FB6D1F2B2AD897F835
:1042F8005B30002B09D0FB6D5A1CFA6507F1600290
:1043080013442D2203F8482C1CE0BB6F03F0040370
:10431800002B09D0FB6D5A1CFA6507F160021344A3
:104328002B2203F8482C0DE0BB6F03F00803002B89
:1043380008D0FB6D5A1CFA6507F16002134420226D
:1043480003F8482CBB6F03937B6F0293FB6D0193BB
:1043580007F118030093BB68FA6839697869FFF7B1
:10436800A0FB034618466437BD4690BDCDCCCCCCE7
:1043780067666666000000002DE9F04F9DB006AF45
:10438800F861B9617A613B6187ED020BD7E90223D5
:10439800D7E90201FCF73CFB0346002B14D04FF091
:1043A800FF32BF4BD7E90201FCF75AFB0346002B4B
:1043B8000AD14FF0FF326FF48013D7E90201FCF7FE
:1043C80031FB0346002B12D0D7F888300293D7F878
:1043D80084300193D7F88030009397ED020B3B6946
:1043E8007A69B969F869FFF75FFD03463FE201237F
:1043F8001E464FF000024FF00003D7E90201FCF718
:1044080011FB0346002B01D100231E4687F84B60A1
:1044180097F84B30002B05D0BB68BB60FB6883F076
:104428000043FB60D7F8883003F48063002B02D187
:104438000623C7F88030D7E90223C7E90823D7E95C
:1044480008234FEA13584FF000094346C3F30A0301
:10445800A3F2FF337B64D7E908234FF0FF3091497B
:1044680002EA000203EA01034FF000008E4942EA23
:10447800000243EA0103C7E90823786CFBF7FAFF57
:104488007BA3D3E90023FCF75BF802460B461046F2
:10449800194679A3D3E90023FBF7A0FE02460B4691
:1044A80090469946D7E908014FF000027F4BFBF789
:1044B80093FE02460B461046194671A3D3E9002322
:1044C800FCF73EF802460B4640464946FBF786FE97
:1044D80002460B4610461946FCF7CCFA03467B65A4
:1044E800786DFBF7C7FF68A3D3E90023FCF728F82A
:1044F80002460B46104619464FF000026C4BFBF77C
:104508006DFE02460B4610461946FCF7B3FA034601
:104518007B64786DFBF7AEFF5DA3D3E90023FCF75E
:104528000FF802460B4690469946786CFBF7A2FFB7
:1045380059A3D3E90023FCF703F802460B4640468B
:104548004946FBF749FE02460B46C7E90E23D7E961
:104558000E23D7E90E01FBF7F3FF02460B46C7E926
:104568000C237B6C03F2FF331A464FEAE2731505FE
:104578000024C7E90845D7E90845D7E90E010246EE
:104588000B46FBF72BFE02460B4690469946D7E9A9
:104598000E234FF000004FF08041FBF71DFE02464E
:1045A8000B4692469B464FF00002424BD7E90C015E
:1045B800FCF7F0F802460B46104619464FF0000289
:1045C8003D4BFBF70BFE02460B46D7E90C01FCF707
:1045D800E1F802460B46104619464FF00002374BE9
:1045E800FBF7FCFD02460B46D7E90C01FCF7D2F8B5
:1045F80002460B4650465946FBF7F0FD02460B466D
:1046080040464946FCF7C6F802460B46104619468E
:104618004FF00002244BFBF7E1FD02460B46204613
:104628002946FBF78DFF03460C46C7E90834D7E94E
:104638000801D7E90223FCF713FA0346002B0DD033
:104648007B6D013B7B65D7E908014FF000021A4BEF
:10465800FCF7A0F803460C46C7E908347B6D632BCA
:104668002EDC7B6D13F1630F2ADB042329E000BFE6
:10467800FB799F501344D33FB3C8608B288AC63F49
:1046880061436F63A787D23F71A379094F930A40AB
:104698001655B5BBB16B0240EF39FAFE422EE63F24
:1046A800FFFFEF7FFFFF0F000000F03F0000F83F23
:1046B8000000E03F00002C400000244000001840AB
:1046C80005233B65D7F8883003F40063002B3DD001
:1046D80069A3D3E90023D7E90201FCF7B7F9034638
:1046E800002B24D066A3D3E90023D7E90201FCF705
:1046F80099F90346002B1AD0D7F880207B6D9A428F
:1047080007DDD7F880207B6DD31A013BC7F88030CE
:1047180002E00023C7F88030D7F8883043F480637C
:10472800C7F8883000233B6500237B650EE0D7F887
:104738008030002B0AD0D7F8883003F48063002B30
:1047480004D0D7F88030013BC7F88030D7F88430E0
:10475800FB64D7F884203B6D9A4204D9FA6C3B6D10
:10476800D31AFB6401E00023FB64D7F8883003F018
:104778000203002B04D03B6D002B01D00023FB6407
:104788007B6D002B0BD0D7E908341A462346D7E9AE
:104798000201FBF7FFFF03460C46C7E902347B69B9
:1047A800FB6297F84B30002B06D0BB683B60FB6878
:1047B80083F000437B6003E097ED027B87ED007B8D
:1047C800D7F8883023F400630293FB6C0193D7F881
:1047D8008030009397ED000B3B697A69B969F869F5
:1047E800FFF762FB78613B6D002B3FD0D7F888302C
:1047F80003F02003002B01D0452000E065207A69F2
:10480800531C7B61FC693B69B969A0477B6D002B30
:10481800B8BF5B4218467B6DDB0FDBB23A6D013ADD
:10482800052105910492002203920A220292019323
:1048380000903B697A69B969F869FFF75EFA7861AF
:10484800D7F8883003F00203002B0FD007E07A690D
:10485800531C7B61FC693B69B9692020A0477A69D0
:10486800FB6AD21AD7F884309A42F0D37B6918468B
:104878005C37BD46BDE8F08F2D431CEBE2361A3F8E
:104888000000000080842E41B0B5A0B00AAFF860E7
:10489800B9607A603B6000237B64BB68002B40F002
:1048A8008E84A04BFB6000F08ABC3B681B78252BEC
:1048B8000DD03B6818787A6C531C7B64FC687B6865
:1048C800B968A0473B6801333B6000F078BC3B689F
:1048D80001333B6000237B653B681B78203B102B32
:1048E80056D801A252F823F07149000899490008E6
:1048F800994900088549000899490008994900081C
:1049080099490008994900089949000899490008F7
:10491800994900085D490008994900084949000873
:104928009949000899490008354900087B6D43F00A
:1049380001037B653B6801333B600123BB642AE0CC
:104948007B6D43F002037B653B6801333B600123C9
:10495800BB6420E07B6D43F004037B653B68013357
:104968003B600123BB6416E07B6D43F008037B6565
:104978003B6801333B600123BB640CE07B6D43F073
:1049880010037B653B6801333B600123BB6402E095
:104998000023BB6400BFBB6C002B9DD100233B658B
:1049A8003B681B781846FFF741F80346002B05D0F3
:1049B8003B461846FFF751F8386518E03B681B7806
:1049C8002A2B14D1BB6E1A1DBA661B683B633B6B5E
:1049D800002B07DA7B6D43F002037B653B6B5B4280
:1049E8003B6501E03B6B3B653B6801333B60002363
:1049F800FB643B681B782E2B24D17B6D43F48063CA
:104A08007B653B6801333B603B681B781846FFF7C2
:104A18000DF80346002B05D03B461846FFF71DF856
:104A2800F8640FE03B681B782A2B0BD1BB6E1A1D6C
:104A3800BA661B68FB62FB6A23EAE373FB643B68A4
:104A480001333B603B681B78683B122B66D801A298
:104A580052F823F0CF4A0008254B0008054B000800
:104A6800254B0008A94A0008254B0008254B0008DB
:104A7800254B0008254B0008254B0008254B00084E
:104A8800254B0008F54A0008254B0008254B00086F
:104A9800254B0008254B0008254B0008154B00083E
:104AA8007B6D43F480737B653B6801333B603B68F7
:104AB8001B786C2B34D17B6D43F400737B653B68AA
:104AC80001333B602CE07B6D43F080037B653B68E2
:104AD80001333B603B681B78682B25D17B6D43F025
:104AE80040037B653B6801333B601DE07B6D43F40D
:104AF80080737B653B6801333B6016E07B6D43F454
:104B080000737B653B6801333B600EE07B6D43F4CB
:104B180080737B653B6801333B6006E000BF04E0BF
:104B280000BF02E0B939000800BF3B681B78253B8D
:104B3800532B00F2378301A252F823F09551000855
:104B4800AD510008AD510008AD510008AD51000845
:104B5800AD510008AD510008AD510008AD51000835
:104B6800AD510008AD510008AD510008AD51000825
:104B7800AD510008AD510008AD510008AD51000815
:104B8800AD510008AD510008AD510008AD51000805
:104B9800AD510008AD510008AD510008AD510008F5
:104BA800AD510008AD510008AD510008AD510008E5
:104BB800AD510008AD510008AD510008694F00081B
:104BC8001D4F0008694F0008AD510008AD5100089D
:104BD800AD510008AD510008AD510008AD510008B5
:104BE800AD510008AD510008AD510008AD510008A5
:104BF800AD510008AD510008AD510008AD51000895
:104C0800AD510008AD510008954C0008AD510008A1
:104C1800AD510008AD510008AD510008AD51000874
:104C2800AD510008AD510008AD510008AD51000864
:104C3800954C0008D54F0008954C0008694F0008AE
:104C48001D4F0008694F0008AD510008954C000839
:104C5800AD510008AD510008AD510008AD51000834
:104C6800AD510008954C00080D510008AD510008E1
:104C7800AD51000849500008AD510008954C000896
:104C8800AD510008AD510008954C00083B681B78F1
:104C9800782B03D03B681B78582B02D110233B6438
:104CA80013E03B681B786F2B02D108233B640CE0B0
:104CB8003B681B78622B02D102233B6405E00A2380
:104CC8003B647B6D23F010037B653B681B78582B96
:104CD80003D17B6D43F020037B653B681B78692B10
:104CE80007D03B681B78642B03D07B6D23F00C0343
:104CF8007B657B6D03F48063002B03D07B6D23F011
:104D080001037B653B681B78692B04D03B681B78E3
:104D1800642B40F08C807B6D03F40073002B2DD046
:104D2800BB6E073323F0070303F10802BA6618CBFA
:104D3800C7E90834D7E90834002B74F1000202DA15
:104D48005B4264EB4404194622467B6ADB0FD8B207
:104D58003B6C4FF000047D6D08953D6D0795FD6C2B
:104D68000695CDE9043402908DE806007B687A6CDC
:104D7800B968F868FFF728F87864C7E07B6D03F432
:104D88008073002B1ED0BB6E1A1DBA661B68FB61B0
:104D9800FB69002BB8BF5B421946FB69DB0FDBB22E
:104DA8007A6D05923A6D0492FA6C03923A6C02920B
:104DB800019300917B687A6CB968F868FEF79DFFEB
:104DC8007864A3E07B6D03F04003002B05D0BB6E35
:104DD8001A1DBA661B68DBB20EE07B6D03F0800318
:104DE800002B05D0BB6E1A1DBA661B681BB203E008
:104DF800BB6E1A1DBA661B68BB61BB69002BB8BFC6
:104E08005B421946BB69DB0FDBB27A6D05923A6DDE
:104E18000492FA6C03923A6C0292019300917B68B7
:104E28007A6CB968F868FEF768FF78646EE07B6DA5
:104E380003F40073002B1FD0BB6E073323F0070366
:104E480003F10802BA6618CB3A6C11464FF000021B
:104E5800786D0890386D0790F86C0690CDE90412CB
:104E6800002202928DE818007B687A6CB968F868AD
:104E7800FEF7AAFF786449E07B6D03F48073002B8A
:104E880016D0BB6E1A1DBA661B687A6D05923A6D0C
:104E98000492FA6C03923A6C0292002201920093F7
:104EA8007B687A6CB968F868FEF727FF78642DE0AC
:104EB8007B6D03F04003002B05D0BB6E1A1DBA664C
:104EC8001B68DBB20EE07B6D03F08003002B05D07E
:104ED800BB6E1A1DBA661B689BB203E0BB6E1A1D37
:104EE800BA661B68BB627B6D05933B6D0493FB6CD4
:104EF80003933B6C029300230193BB6A00937B6886
:104F08007A6CB968F868FEF7F8FE78643B68013394
:104F18003B6054E13B681B78462B03D17B6D43F023
:104F280020037B65BB6E073323F0070303F10802F8
:104F3800BA6693ED007B7B6D02933B6D0193FB6C2E
:104F48000093B0EE470AF0EE670A7B687A6CB9689E
:104F5800F868FEF7A9FF78643B6801333B602EE1EF
:104F68003B681B78672B03D03B681B78472B03D122
:104F78007B6D43F400637B653B681B78452B03D04E
:104F88003B681B78472B03D17B6D43F020037B657F
:104F9800BB6E073323F0070303F10802BA6693EDEB
:104FA800007B7B6D02933B6D0193FB6C0093B0EE2D
:104FB800470AF0EE670A7B687A6CB968F868FFF709
:104FC800DBF978643B6801333B60F8E00123FB635D
:104FD8007B6D03F00203002B0ED107E07A6C531CA3
:104FE8007B64FC687B68B9682020A047FB6B5A1C6F
:104FF800FA633A6D9342F1D3BB6E1A1DBA661B6809
:10500800D8B27A6C531C7B64FC687B68B968A0478B
:105018007B6D03F00203002B0ED007E07A6C531C63
:105028007B64FC687B68B9682020A047FB6B5A1C2E
:10503800FA633A6D9342F1D33B6801333B60BEE0BB
:10504800BB6E1A1DBA661B68BB63FB6C002B01D0D4
:10505800FB6C01E04FF0FF331946B86BFEF7C9FC53
:1050680078637B6D03F48063002B05D07A6BFB6C4F
:10507800934228BF13467B637B6D03F00203002B2A
:105088001AD107E07A6C531C7B64FC687B68B968AA
:105098002020A0477B6B5A1C7A633A6D9342F1D368
:1050A8000AE0BB6B5A1CBA6318787A6C531C7B6491
:1050B800FC687B68B968A047BB6B1B78002B09D0DC
:1050C8007B6D03F48063002BEBD0FB6C5A1EFA64F3
:1050D800002BE6D17B6D03F00203002B0ED007E016
:1050E8007A6C531C7B64FC687B68B9682020A047F5
:1050F8007B6B5A1C7A633A6D9342F1D33B68013358
:105108003B605CE008233B657B6D43F021037B65D6
:105118000023FB75FB7D002B1DD0BB6E1A1DBA66E4
:105128001B684FF000047A6D08923A6D0792FA6C8A
:1051380006924FF010014FF00002CDE90412002250
:1051480002928DE818007B687A6CB968F868FEF7F7
:105158003BFE786416E0BB6E1A1DBA661B681A46D9
:105168007B6D05933B6D0493FB6C039310230293B3
:105178000023019300927B687A6CB968F868FEF79F
:10518800BCFD78643B6801333B6018E07A6C531CC3
:105198007B64FC687B68B9682520A0473B680133BD
:1051A8003B600CE03B6818787A6C531C7B64FC68A5
:1051B8007B68B968A0473B6801333B6000BF3B6828
:1051C8001B78002B7FF471AB7A6C7B689A4202D310
:1051D8007B685A1E00E07A6CFC687B68B96800201E
:1051E800A0477B6C18465837BD46B0BD80B586B021
:1051F80002AF7860396007F10C013B6800937B6867
:105208004FF0FF320348FFF73FFB034618461037BD
:10521800BD4680BDD5390008DFF834D0002103E051
:105228000C4B5B58435004310B480C4B42189A42C4
:10523800F6D30B4A02E0002342F8043B094B9A429A
:10524800F9D3FCF7F1F800F011F8FBF73DFE7047D1
:105258000000012080540008000000200C000020FD
:105268000C000020D0000020FEE7000070B50D4EB5
:105278000D4CA41BA4100025A54209D10B4E0C4CC3
:1052880000F020F8A41BA4100025A54205D170BD8C
:1052980056F8253098470135EEE756F825309847F7
:1052A8000135F2E77854000878540008785400086B
:1052B8007C54000802440346934200D1704703F827
:1052C800011BF9E7F8B500BFF8BC08BC9E4670475B
:0C52D800F8B500BFF8BC08BC9E4670474B
:1052E800504346323132332064656D6F2070726FDF
:1052F8006A6563740000000043313A2025782C2049
:1053080043323A20257800004F7363207374733A50
:105318002025780043323A2025780000486F7572BE
:105328003A2025642C204D696E3A2025642C2053A0
:1053380065633A20256400004461793A2025642C8D
:10534800205765656B6461793A2025642C206D6F60
:105358006E74683A2025642C20796561723A20259C
:1053680064000000380A000011000A140D0A000049
:105378000D0A2020202020203030203031203032EB
:10538800203033203034203035203036203037205C
:10539800303820303920304120304220304320300E
:1053A800442030452030460D0A00000020202020EF
:1053B80020202D2D2D2D2D2D2D2D2D2D2D2D2D2D2F
:1053C8002D2D2D2D2D2D2D2D2D2D2D2D2D2D2D2D05
:1053D8002D2D2D2D2D2D2D2D2D2D2D2D2D2D2D2DF5
:1053E8002D0D0A006E616E00666E692D00000000CA
:1053F800666E692B00000000666E69000000000000
:10540800000000000102030406070809000000006C
:105418000102030400000000000000000000F03F4B
:105428000000000000002440000000000000594077
:105438000000000000408F40000000000088C340CA
:1054480000000000006AF8400000000080842E413F
:1054580000000000D01263410000000084D797418B
:085468000000000065CDCD41FC
:08547000CCB6FF7F0100000033
:04547800BD0100086A
:04547C00990100088A
:0C5480000024F4001000000001000000F7
:04000005080052217C
:00000001FF
